{
  "contractName": "DeFiSafe",
  "abi": [
    {
      "inputs": [],
      "payable": false,
      "stateMutability": "nonpayable",
      "type": "constructor"
    },
    {
      "constant": true,
      "inputs": [],
      "name": "insurePool",
      "outputs": [
        {
          "internalType": "uint256",
          "name": "depositAmount",
          "type": "uint256"
        },
        {
          "internalType": "uint256",
          "name": "surplusFundAmount",
          "type": "uint256"
        }
      ],
      "payable": false,
      "stateMutability": "view",
      "type": "function"
    },
    {
      "constant": true,
      "inputs": [],
      "name": "tokenTotal",
      "outputs": [
        {
          "internalType": "uint256",
          "name": "",
          "type": "uint256"
        }
      ],
      "payable": false,
      "stateMutability": "view",
      "type": "function"
    },
    {
      "constant": false,
      "inputs": [
        {
          "internalType": "address",
          "name": "name",
          "type": "address"
        },
        {
          "internalType": "uint256",
          "name": "tokenType",
          "type": "uint256"
        },
        {
          "internalType": "uint256",
          "name": "amount",
          "type": "uint256"
        }
      ],
      "name": "inputAsset",
      "outputs": [],
      "payable": false,
      "stateMutability": "nonpayable",
      "type": "function"
    },
    {
      "constant": true,
      "inputs": [
        {
          "internalType": "uint256",
          "name": "tokenType",
          "type": "uint256"
        }
      ],
      "name": "checkTokenPoolInfo",
      "outputs": [
        {
          "internalType": "uint256",
          "name": "amount",
          "type": "uint256"
        }
      ],
      "payable": false,
      "stateMutability": "view",
      "type": "function"
    },
    {
      "constant": true,
      "inputs": [],
      "name": "getDesText",
      "outputs": [
        {
          "internalType": "string",
          "name": "text",
          "type": "string"
        }
      ],
      "payable": false,
      "stateMutability": "view",
      "type": "function"
    }
  ],
  "bytecode": "0x608060405234801561001057600080fd5b50600660018190555060008090505b60015481101561008c576040518060600160405280826064018152602001600081526020016000815250600080836064018152602001908152602001600020600082015181600001556020820151816001015560408201518160020155905050808060010191505061001f565b5060405180604001604052806000815260200160008152506002600082015181600001556020820151816001015590505061044a806100cc6000396000f3fe608060405234801561001057600080fd5b50600436106100575760003560e01c8063483942921461005c5780639f34fe0014610081578063b1437e27146100c3578063b4de931d146100e1578063fbacc71514610139575b600080fd5b6100646101bc565b604051808381526020018281526020019250505060405180910390f35b6100ad6004803603602081101561009757600080fd5b81019080803590602001909291905050506101ce565b6040518082815260200191505060405180910390f35b6100cb6101f2565b6040518082815260200191505060405180910390f35b610137600480360360608110156100f757600080fd5b81019080803573ffffffffffffffffffffffffffffffffffffffff16906020019092919080359060200190929190803590602001909291905050506101f8565b005b6101416103d8565b6040518080602001828103825283818151815260200191508051906020019080838360005b83811015610181578082015181840152602081019050610166565b50505050905090810190601f1680156101ae5780820380516001836020036101000a031916815260200191505b509250505060405180910390f35b60028060000154908060010154905082565b60008060008084815260200190815260200160002090508060010154915050919050565b60015481565b6064821015801561020a5750606a8211155b61027c576040517f08c379a000000000000000000000000000000000000000000000000000000000815260040180806020018281038252600a8152602001807f6e6f7420546f6b656e210000000000000000000000000000000000000000000081525060200191505060405180910390fd5b600081116102f2576040517f08c379a000000000000000000000000000000000000000000000000000000000815260040180806020018281038252600e8152602001807f546f6f206665772061737365747300000000000000000000000000000000000081525060200191505060405180910390fd5b600080600084815260200190815260200160002090508181600101600082825401925050819055506001816002016000828254019250508190555060008160030160008673ffffffffffffffffffffffffffffffffffffffff1673ffffffffffffffffffffffffffffffffffffffff1681526020019081526020016000209050848160000160006101000a81548173ffffffffffffffffffffffffffffffffffffffff021916908373ffffffffffffffffffffffffffffffffffffffff160217905550838160010181905550828160020181905550600a81600301819055505050505050565b60606040518060400160405280600881526020017f746573742d44657300000000000000000000000000000000000000000000000081525090509056fea265627a7a723158201d2cee8c0d088848ae63feae0c65412b0f382866a2e24839474402fb95aec7da64736f6c63430005100032",
  "source": "pragma solidity >=0.5.0 <0.7.0;\n\ncontract DeFiSafe {\n\n    //用户\n    struct User {\n        address     name;\n        uint        tokenID;\n        uint256     amount;\n        uint        price;\n    }\n\n    //token池\n    struct TokenPool {\n        uint        tokenID;\n        uint256     tokenAmount;\n        uint        userAmount;\n        mapping(address => User) users;\n    }\n\n    //token池管理\n    /*\n    协议规则:\n    100+0 -> Eth\n    100+1 -> Link\n    100+2 -> Knc\n    100+3 -> Zrx\n    100+4 -> Snx\n    100+5 -> Lend\n    */\n    mapping (uint => TokenPool) tokenPools;\n    uint public tokenTotal;\n\n    //投保池定义\n    struct InsurePool {\n        //投保金总额\n        uint    depositAmount;\n        //盈余资金总额\n        uint    surplusFundAmount;\n    }\n    InsurePool public insurePool;\n\n    constructor() public {\n        tokenTotal = 6;\n        for (uint i = 0; i < tokenTotal; i++) {\n                tokenPools[100+i] = TokenPool({\n                tokenID: 100+i,\n                tokenAmount: 0,\n                userAmount: 0\n            });\n        }\n        insurePool = InsurePool({\n            depositAmount: 0,\n            surplusFundAmount: 0\n        });\n    }\n\n    /*\n    输入函数\n    作用：读取用户资产。\n    参数：\n    1. 地址\n    2. 类型\n    3. 数量\n    */\n    function inputAsset(address name,uint tokenType,uint amount) public  {\n        require(tokenType>=100 && tokenType <= 106,\"not Token!\");\n        require(amount > 0,\"Too few assets\");\n        //匹配路由\n        TokenPool storage pool = tokenPools[tokenType];\n        pool.tokenAmount += amount;\n        pool.userAmount += 1;\n        User storage user = pool.users[name];\n        user.name = name;\n        user.tokenID = tokenType;\n        user.amount = amount;\n        user.price = 10;\n    }\n\n    /*\n    获取token池资产信息函数\n    作用：前端展示信息调用\n    参数：\n    1. 类型\n    返回值：\n    1. 数量\n    */\n    function checkTokenPoolInfo(uint tokenType) public view returns (uint256 amount) {\n        TokenPool storage pool = tokenPools[tokenType];\n        return pool.tokenAmount;\n    }\n\n    function getDesText() public view returns (string memory text) {\n        return 'test-Des';\n    }\n\n    /*\n    资产匹配路由函数\n    作用：结合输入函数中的信息，匹配到对应的token资金池，输入到对应的token资金池\n    参数：\n    1. 类型\n    */\n    // function matchRoute(uint tokenType) internal returns (TokenPool storage tokenPool){\n    //     TokenPool storage pool = tokenPools[tokenType];\n    //     return pool;\n    // }\n\n    /*\n    token资金池\n    作用：记账本的作用，记录当前对应token的总量，以及用户信息，以及对应用户的资产价格快照\n    参数：\n    1. 地址\n    2. 类型\n    3. 数量\n    */\n\n    /*\n    资产分配函数\n    作用：进入池子的资产，对资产进行处理，与第三方合约进行交互。\n    参数：\n    1. 类型\n    2. 数量\n    3. 输入\\输出\n    */\n\n\n    /*\n    投保池\n    作用：盈余资金的记录与存储\n    参数：\n    1. 数量\n    */\n\n\n    /*\n    输出函数\n    作用：用户结算\n    参数：\n    1. 地址\n    2. 类型\n    */\n\n    /*\n    获取当前盈余资金函数\n    作用：内部使用，不对外展示\n    返回值：\n    1. 数量(Dai )\n    */\n\n}",
  "sourcePath": "/Users/geekzhang/Desktop/DeFiSafe/DeFiSafeCode/contracts/DeFiSafe.sol",
  "compiler": {
    "name": "solc",
    "version": "0.5.16+commit.9c3226ce.Emscripten.clang"
  },
  "schemaVersion": "3.1.0",
  "updatedAt": "2020-05-04T08:01:28.878Z",
  "networkType": "ethereum",
  "devdoc": {
    "methods": {}
  },
  "userdoc": {
    "methods": {}
  }
}